:100000000C9434000C9446000C9446000C9446006A
:100010000C9446000C9446000C9446000C94460048
:100020000C9446000C9446000C9446000C94460038
:100030000C9446000C9446000C948F010C944600DE
:100040000C9446000C9446000C9446000C94460018
:100050000C9446000C9446000C9446000C94460008
:100060000C9446000C94460011241FBECFEFD8E03C
:10007000DEBFCDBF11E0A0E0B1E001C01D92A43011
:10008000B107E1F70E943C010C94B4010C9400000C
:100090008130F9F0813020F0823009F04BC032C05D
:1000A000413059F425B181E090E002C0880F991FDA
:1000B0006A95E2F7282B25B9089525B181E090E0F3
:1000C00002C0880F991F6A95E2F78095822385B94F
:1000D0000895413059F428B181E090E002C0880FC2
:1000E000991F6A95E2F7282B28B9089528B181E075
:1000F00090E002C0880F991F6A95E2F780958223ED
:1001000088B90895413059F42BB181E090E002C0E4
:10011000880F991F6A95E2F7282B2BB908952BB108
:1001200081E090E002C0880F991F6A95E2F7809500
:1001300082238BB908958130F9F0813020F082302C
:1001400009F04BC032C0413059F424B181E090E055
:1001500002C0880F991F6A95E2F7282B24B90895E9
:1001600024B181E090E002C0880F991F6A95E2F700
:100170008095822384B90895413059F427B181E0F4
:1001800090E002C0880F991F6A95E2F7282B27B9E3
:10019000089527B181E090E002C0880F991F6A9509
:1001A000E2F78095822387B90895413059F42AB146
:1001B00081E090E002C0880F991F6A95E2F7282B32
:1001C0002AB908952AB181E090E002C0880F991FF2
:1001D0006A95E2F7809582238AB908959B01AC0164
:1001E0005695479537952795B901CA010895CF923D
:1001F000DF92EF92FF920F931F93D82EC62E7901B4
:100200008A0141E00E944800C801B7010E94EE0047
:100210007B018C010E9457018D2D6C2D40E00E94C6
:100220004800C801B7010E9457011F910F91FF902C
:10023000EF90DF90CF900895AF92BF92CF92DF9270
:10024000EF92FF920F931F93A82EB62E69017A01A9
:1002500010E007C08A2D6B2DA70196010E94F700C0
:100260001F5F1017B8F31F910F91FF90EF90DF9071
:10027000CF90BF90AF9008950F9380E065E041E08C
:100280000E949B000E94850180E065E028EC30E040
:1002900040E050E00FE00E941C0180E065E028EEA5
:1002A00033E040E050E003E00E941C01FFCFEF92FA
:1002B000FF920F931F937B018C01209100013091DD
:1002C0000101409102015091030180910001909140
:1002D0000101A0910201B0910301821B930BA40BB9
:1002E000B50B8E159F05A007B10778F3209100018B
:1002F000309101014091020150910301B901CA01FD
:100300001F910F91FF90EF90089582E084BD93E0DC
:1003100095BD99EF97BD80936E00789408951F92D4
:100320000F920FB60F9211248F939F93AF93BF93A9
:100330008091000190910101A0910201B09103010F
:100340000196A11DB11D8093000190930101A0931E
:100350000201B0930301BF91AF919F918F910F90D4
:0C0360000FBE0F901F901895F894FFCF6F
:00000001FF
